:0400000066EF00F0B7
:100008003082D9CF04F0DACF05F0F3CF06F0F4CF81
:1000180007F0F2A412EF00F014EF00F05CEF00F02C
:10002800F294060ED66E000E806ED8902E34D96EDD
:100038002F34DA6E240ED926000EDA22DECF01F034
:10004800DDCF02F0170E0124D96E000E0220DA6E01
:10005800DF50036E030E2E182F10D8B436EF00F0C1
:1000680039EF00F0010E3AEF00F0000E800DF3506A
:100078000324836E2EC001F0010E026E012A47EFA1
:1000880000F0D8900236012E45EF00F00250806E45
:100098002E4A2F2A040E2E182F10D8A456EF00F03F
:1000A80058EF00F05CEF00F0000E2F6E000E2E6E81
:1000B80007C0F4FF06C0F3FF05C0DAFF04C0D9FF8C
:1000C800309211008AEF01F0000E0F01386FF00E28
:1000D800926E000E806E000E3B6F000E956E000E45
:1000E800836EC30ED56EF184F28AF28E2C502D10D9
:1000F800D8B481EF00F083EF00F0E7EF00F02CC0F8
:100108000EF02DC00FF0030E116EE80E106E1EECEF
:1001180001F00EC02AF00FC02BF02AC008F02BC047
:1001280009F0FC0E0B6E180E0A6EA5EC01F02C50AF
:1001380008240E6E2D5009200F6E000E116E640EED
:10014800106E1EEC01F00EC028F00FC029F02AC076
:1001580008F02BC009F0FC0E0B6E180E0A6EA5EC09
:1001680001F008C015F009C016F028C008F029C031
:1001780009F0FF0E0B6E9C0E0A6EA5EC01F00850FC
:100188001526095016222C5015240E6E2D501620B7
:100198000F6E000E116E0A0E106E1EEC01F00EC0EE
:1001A80026F00FC027F02CC008F02DC009F0000E73
:1001B8000B6E0A0E0A6E58EC01F008C024F009C054
:1001C80025F0F7EF00F0000E2B6E0A0E2A6E000ED7
:1001D800296E0A0E286E000E276E0A0E266E000E75
:1001E800256E0A0E246E224A232AE80E225C030E8C
:1001F8002358D8A002EF01F004EF01F008EF01F056
:10020800000E236E010E226E80B80DEF01F00FEF85
:1002180001F07AEF00F022C02CF023C02DF080A866
:1002280018EF01F01AEF01F013EF01F07AEF00F088
:1002380066EF00F0000E136E000E126E10501110D3
:10024800D8B429EF01F02BEF01F053EF01F0010EC4
:10025800146E33EF01F0D89010361136142A11AE0F
:1002680038EF01F03AEF01F02FEF01F0D890123695
:10027800133610500E5C11500F58D8A046EF01F0FD
:1002880048EF01F04DEF01F010500E5E11500F5A7B
:100298001280D89011321032142E3AEF01F012C0A9
:1002A8000EF013C00FF012000A500B10D8B45FEF15
:1002B80001F061EF01F085EF01F0010E0C6E69EFBE
:1002C80001F0D8900A360B360C2A0BAE6EEF01F00F
:1002D80070EF01F065EF01F00A50085C0B50095807
:1002E800D8A079EF01F07BEF01F07FEF01F00A5021
:1002F800085E0B50095AD8900B320A320C2E70EF58
:1003080001F008C008F009C009F01200700EF66E7E
:10031800030EF76E000EF86E00EE17F010EE0DF0FB
:100328000900F5CFEEFFE550E150FAE100EE24F0C8
:100338000C0EEE6AE806FDE130903092000168EF9D
:1003480000F008500A02F3CF0CF0F4CF0DF008507B
:100358000B02F3500D2609500A02F3500D260CC06B
:1003680008F00DC009F012003F065B4F666D7D076F
:050378007F6F40010051
:020000040020DA
:08000000FFFFFFFFFFFFFFFF00
:020000040030CA
:0E000000FF221F3CFFBF85FF0FC00FE00F4027
:00000001FF
